{"abi":[{"type":"constructor","inputs":[{"name":"_allocator","type":"address","internalType":"address"}],"stateMutability":"nonpayable"},{"type":"function","name":"_CALL_REQUEST_TYPEHASH","inputs":[],"outputs":[{"name":"","type":"bytes32","internalType":"bytes32"}],"stateMutability":"view"},{"type":"function","name":"_CALL_TYPEHASH","inputs":[],"outputs":[{"name":"","type":"bytes32","internalType":"bytes32"}],"stateMutability":"view"},{"type":"function","name":"allocator","inputs":[],"outputs":[{"name":"","type":"address","internalType":"address"}],"stateMutability":"view"},{"type":"function","name":"callRequests","inputs":[{"name":"","type":"bytes32","internalType":"bytes32"}],"outputs":[{"name":"","type":"bool","internalType":"bool"}],"stateMutability":"view"},{"type":"function","name":"cancelOwnershipHandover","inputs":[],"outputs":[],"stateMutability":"payable"},{"type":"function","name":"completeOwnershipHandover","inputs":[{"name":"pendingOwner","type":"address","internalType":"address"}],"outputs":[],"stateMutability":"payable"},{"type":"function","name":"depositErc20","inputs":[{"name":"depositor","type":"address","internalType":"address"},{"name":"token","type":"address","internalType":"address"},{"name":"amount","type":"uint256","internalType":"uint256"},{"name":"id","type":"bytes32","internalType":"bytes32"}],"outputs":[],"stateMutability":"nonpayable"},{"type":"function","name":"depositNative","inputs":[{"name":"depositor","type":"address","internalType":"address"},{"name":"id","type":"bytes32","internalType":"bytes32"}],"outputs":[],"stateMutability":"payable"},{"type":"function","name":"eip712Domain","inputs":[],"outputs":[{"name":"fields","type":"bytes1","internalType":"bytes1"},{"name":"name","type":"string","internalType":"string"},{"name":"version","type":"string","internalType":"string"},{"name":"chainId","type":"uint256","internalType":"uint256"},{"name":"verifyingContract","type":"address","internalType":"address"},{"name":"salt","type":"bytes32","internalType":"bytes32"},{"name":"extensions","type":"uint256[]","internalType":"uint256[]"}],"stateMutability":"view"},{"type":"function","name":"execute","inputs":[{"name":"request","type":"tuple","internalType":"struct CallRequest","components":[{"name":"calls","type":"tuple[]","internalType":"struct Call[]","components":[{"name":"to","type":"address","internalType":"address"},{"name":"data","type":"bytes","internalType":"bytes"},{"name":"value","type":"uint256","internalType":"uint256"},{"name":"allowFailure","type":"bool","internalType":"bool"}]},{"name":"nonce","type":"uint256","internalType":"uint256"},{"name":"expiration","type":"uint256","internalType":"uint256"}]},{"name":"signature","type":"bytes","internalType":"bytes"}],"outputs":[{"name":"results","type":"tuple[]","internalType":"struct CallResult[]","components":[{"name":"success","type":"bool","internalType":"bool"},{"name":"returnData","type":"bytes","internalType":"bytes"}]}],"stateMutability":"nonpayable"},{"type":"function","name":"owner","inputs":[],"outputs":[{"name":"result","type":"address","internalType":"address"}],"stateMutability":"view"},{"type":"function","name":"ownershipHandoverExpiresAt","inputs":[{"name":"pendingOwner","type":"address","internalType":"address"}],"outputs":[{"name":"result","type":"uint256","internalType":"uint256"}],"stateMutability":"view"},{"type":"function","name":"renounceOwnership","inputs":[],"outputs":[],"stateMutability":"payable"},{"type":"function","name":"requestOwnershipHandover","inputs":[],"outputs":[],"stateMutability":"payable"},{"type":"function","name":"setAllocator","inputs":[{"name":"_allocator","type":"address","internalType":"address"}],"outputs":[],"stateMutability":"nonpayable"},{"type":"function","name":"transferOwnership","inputs":[{"name":"newOwner","type":"address","internalType":"address"}],"outputs":[],"stateMutability":"payable"},{"type":"event","name":"CallExecuted","inputs":[{"name":"id","type":"bytes32","indexed":false,"internalType":"bytes32"},{"name":"call","type":"tuple","indexed":false,"internalType":"struct Call","components":[{"name":"to","type":"address","internalType":"address"},{"name":"data","type":"bytes","internalType":"bytes"},{"name":"value","type":"uint256","internalType":"uint256"},{"name":"allowFailure","type":"bool","internalType":"bool"}]}],"anonymous":false},{"type":"event","name":"Erc20Deposit","inputs":[{"name":"from","type":"address","indexed":false,"internalType":"address"},{"name":"token","type":"address","indexed":false,"internalType":"address"},{"name":"amount","type":"uint256","indexed":false,"internalType":"uint256"},{"name":"id","type":"bytes32","indexed":false,"internalType":"bytes32"}],"anonymous":false},{"type":"event","name":"NativeDeposit","inputs":[{"name":"from","type":"address","indexed":false,"internalType":"address"},{"name":"amount","type":"uint256","indexed":false,"internalType":"uint256"},{"name":"id","type":"bytes32","indexed":false,"internalType":"bytes32"}],"anonymous":false},{"type":"event","name":"OwnershipHandoverCanceled","inputs":[{"name":"pendingOwner","type":"address","indexed":true,"internalType":"address"}],"anonymous":false},{"type":"event","name":"OwnershipHandoverRequested","inputs":[{"name":"pendingOwner","type":"address","indexed":true,"internalType":"address"}],"anonymous":false},{"type":"event","name":"OwnershipTransferred","inputs":[{"name":"oldOwner","type":"address","indexed":true,"internalType":"address"},{"name":"newOwner","type":"address","indexed":true,"internalType":"address"}],"anonymous":false},{"type":"error","name":"AddressCannotBeZero","inputs":[]},{"type":"error","name":"AlreadyInitialized","inputs":[]},{"type":"error","name":"CallFailed","inputs":[{"name":"returnData","type":"bytes","internalType":"bytes"}]},{"type":"error","name":"CallRequestAlreadyUsed","inputs":[]},{"type":"error","name":"CallRequestExpired","inputs":[]},{"type":"error","name":"InvalidSignature","inputs":[]},{"type":"error","name":"NewOwnerIsZeroAddress","inputs":[]},{"type":"error","name":"NoHandoverRequest","inputs":[]},{"type":"error","name":"Unauthorized","inputs":[]}],"bytecode":{"object":"0x61012060405234801561001157600080fd5b5060405161150838038061150883398101604081905261003091610144565b306080524660a05260608061007b604080518082018252600b81526a52656c6179457363726f7760a81b602080830191909152825180840190935260018352603160f81b9083015291565b815160209283012081519183019190912060c082905260e0819052604080517f8b73c3c69bb8fe3d512ecc4cf759cc79239f7b179b0ffacaa9a75d522b39400f8152938401929092529082015246606082015230608082015260a09020610100525050600180546001600160a01b0319166001600160a01b03831617905561010233610108565b50610174565b6001600160a01b0316638b78c6d8198190558060007f8be0079c531659141344cd1fd0a4f28419497f9722a3daafe3b4186f6b6457e08180a350565b60006020828403121561015657600080fd5b81516001600160a01b038116811461016d57600080fd5b9392505050565b60805160a05160c05160e051610100516113506101b86000396000610c8401526000610d3e01526000610d1801526000610cc801526000610ca501526113506000f3fe6080604052600436106100f35760003560e01c8063bf83f2a21161008a578063eae335b311610059578063eae335b314610292578063f04e283e146102c6578063f2fde38b146102d9578063fee81cf4146102ec57600080fd5b8063bf83f2a2146101d0578063cf5905d7146101f0578063d52bfcc814610232578063e80179521461027257600080fd5b8063715018a6116100c6578063715018a61461015357806384b0196e1461015b5780638da5cb5b14610183578063aa5dcecc146101b057600080fd5b806325692962146100f85780632d9fb4781461010257806349290c1c1461013857806354d1f13d1461014b575b600080fd5b61010061031f565b005b34801561010e57600080fd5b5061012261011d366004610e3f565b61036f565b60405161012f9190610efd565b60405180910390f35b610100610146366004610f97565b61043b565b6101006104a5565b6101006104e1565b34801561016757600080fd5b506101706104f5565b60405161012f9796959493929190610fc1565b34801561018f57600080fd5b50638b78c6d819545b6040516001600160a01b03909116815260200161012f565b3480156101bc57600080fd5b50600154610198906001600160a01b031681565b3480156101dc57600080fd5b506101006101eb366004611059565b610554565b3480156101fc57600080fd5b506102247fd5395b56326912498477b4b3e987bcd306e0ea8d9f9e41e3563c6176a7bc2f6581565b60405190815260200161012f565b34801561023e57600080fd5b5061026261024d366004611074565b60006020819052908152604090205460ff1681565b604051901515815260200161012f565b34801561027e57600080fd5b5061010061028d36600461108d565b6105a5565b34801561029e57600080fd5b506102247f1dcae8e357e31cf00a7777284e6f769bb6d19654688c9665de5fea6f35f5357c81565b6101006102d4366004611059565b61062f565b6101006102e7366004611059565b61066f565b3480156102f857600080fd5b50610224610307366004611059565b63389a75e1600c908152600091909152602090205490565b60006202a30067ffffffffffffffff164201905063389a75e1600c5233600052806020600c2055337fdbf36a107da19e49527a7176a1babf963b4b0ff8cde35ee35d6cd8f1f9ac7e1d600080a250565b6060600061037c84610696565b905042846040013510156103a35760405163345c526d60e11b815260040160405180910390fd5b6001546103ba906001600160a01b03168285610918565b6103d757604051638baa579f60e01b815260040160405180910390fd5b60008181526020819052604090205460ff161561040757604051630929056560e31b815260040160405180910390fd5b6000818152602081905260409020805460ff191660011790556104338161042e86806110cf565b6109fa565b949350505050565b60006001600160a01b038316156104525782610454565b335b604080516001600160a01b03831681523460208201529081018490529091507f85c721e8ef0c5dcd3148d76089ab653259181fd472bbb24272819e0d1da874139060600160405180910390a1505050565b63389a75e1600c523360005260006020600c2055337ffa7b8eab7da67f412cc9575ed43464468f9bfbae89d1675917346ca6d8fe3c92600080a2565b6104e9610bcb565b6104f36000610be6565b565b600f60f81b6060806000808083610542604080518082018252600b81526a52656c6179457363726f7760a81b602080830191909152825180840190935260018352603160f81b9083015291565b97989097965046955030945091925090565b61055c610bcb565b6001600160a01b038116610583576040516303988b8160e61b815260040160405180910390fd5b600180546001600160a01b0319166001600160a01b0392909216919091179055565b6105ba6001600160a01b038416333085610c24565b60006001600160a01b038516156105d157846105d3565b335b604080516001600160a01b03808416825287166020820152908101859052606081018490529091507f780ad3a4510beb6978629a743ba3376d9ffb3c773e40f6291b36b8f5aa51f4739060800160405180910390a15050505050565b610637610bcb565b63389a75e1600c52806000526020600c20805442111561065f57636f5e88186000526004601cfd5b6000905561066c81610be6565b50565b610677610bcb565b8060601b61068d57637448fbae6000526004601cfd5b61066c81610be6565b6000806106a383806110cf565b905067ffffffffffffffff8111156106bd576106bd610d9a565b6040519080825280602002602001820160405280156106e6578160200160208202803683370190505b50905060005b6106f684806110cf565b905081101561088e5760007fd5395b56326912498477b4b3e987bcd306e0ea8d9f9e41e3563c6176a7bc2f6561072c86806110cf565b8481811061073c5761073c611120565b905060200281019061074e9190611136565b61075c906020810190611059565b61076687806110cf565b8581811061077657610776611120565b90506020028101906107889190611136565b610796906020810190611156565b6040516107a492919061119d565b6040519081900390206107b788806110cf565b868181106107c7576107c7611120565b90506020028101906107d99190611136565b604001356107e789806110cf565b878181106107f7576107f7611120565b90506020028101906108099190611136565b61081a9060808101906060016111bd565b6040805160208101969096526001600160a01b039094169385019390935260608401919091526080830152151560a082015260c0016040516020818303038152906040528051906020012090508083838151811061087a5761087a611120565b6020908102919091010152506001016106ec565b506109117f1dcae8e357e31cf00a7777284e6f769bb6d19654688c9665de5fea6f35f5357c826040516020016108c491906111d8565b60408051601f198184030181528282528051602091820120838201949094529082019290925290850135606082015260800160405160208183030381529060405280519060200120610c82565b9392505050565b60006001600160a01b0384161561091157604051843b6109b25782516040811461094a576041811461096b57506109f2565b604084015160ff81901c601b016020526001600160ff1b031660605261097f565b606084015160001a60205260408401516060525b50836000526020830151604052602060016080600060015afa5180861860601b3d119250506000606052806040526109f2565b631626ba7e60e01b808252846004830152602482016040815284516020018060448501828860045afa905060208260443d01868b5afa9151911691141691505b509392505050565b6060818067ffffffffffffffff811115610a1657610a16610d9a565b604051908082528060200260200182016040528015610a5c57816020015b604080518082019091526000815260606020820152815260200190600190039081610a345790505b50915060005b81811015610bc2576000858583818110610a7e57610a7e611120565b9050602002810190610a909190611136565b610a999061120e565b905060008082600001516001600160a01b031683604001518460200151604051610ac3919061129e565b60006040518083038185875af1925050503d8060008114610b00576040519150601f19603f3d011682016040523d82523d6000602084013e610b05565b606091505b509150915081158015610b1a57508260600151155b15610b43578060405163a5fa8d2b60e01b8152600401610b3a91906112b0565b60405180910390fd5b6040518060400160405280831515815260200182815250868581518110610b6c57610b6c611120565b60200260200101819052508115610bb7577fd94218ad7d40b15a52ff1e4483e04ea438f68068d833adbf8f75638087e46adc8984604051610bae9291906112c3565b60405180910390a15b505050600101610a62565b50509392505050565b638b78c6d8195433146104f3576382b429006000526004601cfd5b638b78c6d81980546001600160a01b039092169182907f8be0079c531659141344cd1fd0a4f28419497f9722a3daafe3b4186f6b6457e0600080a355565b60405181606052826040528360601b602c526323b872dd60601b600c52602060006064601c6000895af18060016000511416610c7357803d873b151710610c7357637939f4246000526004601cfd5b50600060605260405250505050565b7f00000000000000000000000000000000000000000000000000000000000000007f000000000000000000000000000000000000000000000000000000000000000030147f0000000000000000000000000000000000000000000000000000000000000000461416610d755750604080517f8b73c3c69bb8fe3d512ecc4cf759cc79239f7b179b0ffacaa9a75d522b39400f81527f000000000000000000000000000000000000000000000000000000000000000060208201527f00000000000000000000000000000000000000000000000000000000000000009181019190915246606082015230608082015260a090205b67190100000000000060005280601a5281603a52604260182090506000603a52919050565b634e487b7160e01b600052604160045260246000fd5b600082601f830112610dc157600080fd5b813567ffffffffffffffff811115610ddb57610ddb610d9a565b604051601f8201601f19908116603f0116810167ffffffffffffffff81118282101715610e0a57610e0a610d9a565b604052818152838201602001851015610e2257600080fd5b816020850160208301376000918101602001919091529392505050565b60008060408385031215610e5257600080fd5b823567ffffffffffffffff811115610e6957600080fd5b830160608186031215610e7b57600080fd5b9150602083013567ffffffffffffffff811115610e9757600080fd5b610ea385828601610db0565b9150509250929050565b60005b83811015610ec8578181015183820152602001610eb0565b50506000910152565b60008151808452610ee9816020860160208601610ead565b601f01601f19169290920160200192915050565b6000602082016020835280845180835260408501915060408160051b86010192506020860160005b82811015610f6f57603f1987860301845281518051151586526020810151905060406020870152610f596040870182610ed1565b9550506020938401939190910190600101610f25565b50929695505050505050565b80356001600160a01b0381168114610f9257600080fd5b919050565b60008060408385031215610faa57600080fd5b610fb383610f7b565b946020939093013593505050565b60ff60f81b8816815260e060208201526000610fe060e0830189610ed1565b8281036040840152610ff28189610ed1565b606084018890526001600160a01b038716608085015260a0840186905283810360c08501528451808252602080870193509091019060005b8181101561104857835183526020938401939092019160010161102a565b50909b9a5050505050505050505050565b60006020828403121561106b57600080fd5b61091182610f7b565b60006020828403121561108657600080fd5b5035919050565b600080600080608085870312156110a357600080fd5b6110ac85610f7b565b93506110ba60208601610f7b565b93969395505050506040820135916060013590565b6000808335601e198436030181126110e657600080fd5b83018035915067ffffffffffffffff82111561110157600080fd5b6020019150600581901b360382131561111957600080fd5b9250929050565b634e487b7160e01b600052603260045260246000fd5b60008235607e1983360301811261114c57600080fd5b9190910192915050565b6000808335601e1984360301811261116d57600080fd5b83018035915067ffffffffffffffff82111561118857600080fd5b60200191503681900382131561111957600080fd5b8183823760009101908152919050565b80358015158114610f9257600080fd5b6000602082840312156111cf57600080fd5b610911826111ad565b8151600090829060208501835b828110156112035781518452602093840193909101906001016111e5565b509195945050505050565b60006080823603121561122057600080fd5b6040516080810167ffffffffffffffff8111828210171561124357611243610d9a565b60405261124f83610f7b565b8152602083013567ffffffffffffffff81111561126b57600080fd5b61127736828601610db0565b60208301525060408381013590820152611293606084016111ad565b606082015292915050565b6000825161114c818460208701610ead565b6020815260006109116020830184610ed1565b8281526040602082015260018060a01b03825116604082015260006020830151608060608401526112f760c0840182610ed1565b9050604084015160808401526060840151151560a084015280915050939250505056fea264697066735822122014c3b9fbf5c3b26c84abb20789160ce116c424ede0582cdcb0b96cd0b1e6715364736f6c634300081c0033","linkReferences":{}},"methodIdentifiers":{"_CALL_REQUEST_TYPEHASH()":"eae335b3","_CALL_TYPEHASH()":"cf5905d7","allocator()":"aa5dcecc","callRequests(bytes32)":"d52bfcc8","cancelOwnershipHandover()":"54d1f13d","completeOwnershipHandover(address)":"f04e283e","depositErc20(address,address,uint256,bytes32)":"e8017952","depositNative(address,bytes32)":"49290c1c","eip712Domain()":"84b0196e","execute(((address,bytes,uint256,bool)[],uint256,uint256),bytes)":"2d9fb478","owner()":"8da5cb5b","ownershipHandoverExpiresAt(address)":"fee81cf4","renounceOwnership()":"715018a6","requestOwnershipHandover()":"25692962","setAllocator(address)":"bf83f2a2","transferOwnership(address)":"f2fde38b"},"id":19}